:020000040800F2
:100000009807002055010008811B00082B190008E3
:1000100000000000000000000000000000000000E0
:10002000000000000000000000000000851B000828
:100030000000000000000000831B0008871B000870
:100040006701000800000000670100086701000860
:1000500067010008670100086701000867010008E0
:1000600000000000B50500086701000867010008EE
:1000700067010008E91B0008670100080000000094
:100080006701000800000000000000006701000890
:100090000000000067010008670100086701000810
:1000A0000000000067010008000000006701000870
:1000B00000F002F800F03EF80CA030C80838241810
:1000C0002D18A246671EAB4654465D46AC4201D190
:1000D00000F030F87E460F3E0FCCB6460126334284
:1000E00000D0FB1AA246AB4633431847041F00005A
:1000F000241F0000103A02D378C878C1FAD85207FA
:1001000001D330C830C101D504680C6070470000CD
:100110000023002400250026103A01D378C1FBD823
:10012000520700D330C100D50B6070471FB51FBD0B
:1001300010B510BD00F07BF91146FFF7F7FF01F095
:100140002DFF00F093F903B4FFF7F2FF03BC00F0BA
:1001500099F900000748804707480047FEE7FEE797
:10016000FEE7FEE7FEE7FEE704480549054A064BC1
:1001700070470000E51B0008B1000008980100204E
:10018000980700209803002098030020FEB505463C
:1001900010460C46184373D0AE468C460020AD1A6C
:1001A00001469C4167D36646002701243D46B61AA6
:1001B0009D4102D313463A462124654676462F04D4
:1001C000360C3E432D0CB61A9D4104D3150C1B046E
:1001D0002B4312041034654676462F06360A3E43FA
:1001E0002D0AB61A9D4104D3150E1B022B43120291
:1001F0000834654676462F0736093E432D09B61A60
:100200009D4104D3150F1B012B431201241D65468C
:100210007646AF07B6083E43AD08B61A9D4104D3F3
:10022000950F9B002B439200A41C65467646EF0772
:1002300076083E436D08B61A9D411AD392185B4169
:10024000641C16E00018764665464941B71A9D4180
:100250000191009009D36046B11A98418E468446B8
:10026000009801990025401C6941DD0752082A4386
:100270005B08641EE6D57246634603B0F0BDFFE737
:1002800000200146C046C0462A462346F5E701E065
:1002900004C0091F0429FBD28B0701D50280801CF2
:1002A000C90700D00270704700290BD0C30702D0E5
:1002B0000270401C491E022904D3830702D5028024
:1002C000801C891EE3E70022EEE70022DFE7002220
:1002D00003098B422CD3030A8B4211D300239C4683
:1002E0004EE003460B433CD4002243088B4231D3FB
:1002F00003098B421CD3030A8B4201D394463FE08F
:10030000C3098B4201D3CB01C01A524183098B42EE
:1003100001D38B01C01A524143098B4201D34B01D7
:10032000C01A524103098B4201D30B01C01A52413A
:10033000C3088B4201D3CB00C01A524183088B42C1
:1003400001D38B00C01A524143088B4201D34B00AA
:10035000C01A5241411A00D201465241104670471C
:100360005DE0CA0F00D04942031000D34042534021
:1003700000229C4603098B422DD3030A8B4212D3E1
:10038000FC22890112BA030A8B420CD38901921113
:100390008B4208D3890192118B4204D389013AD050
:1003A000921100E08909C3098B4201D3CB01C01A25
:1003B000524183098B4201D38B01C01A5241430938
:1003C0008B4201D34B01C01A524103098B4201D326
:1003D0000B01C01A5241C3088B4201D3CB00C01A93
:1003E000524183088B4201D38B00C01A5241D9D2AB
:1003F00043088B4201D34B00C01A5241411A00D22C
:100400000146634652415B10104601D34042002B27
:1004100000D54942704763465B1000D3404201B5A6
:100420000020C046C04602BD704770477047754601
:1004300000F024F8AE46050069465346C008C000E7
:10044000854618B020B5FFF78FFE60BC002749082D
:10045000B6460026C0C5C0C5C0C5C0C5C0C5C0C55C
:10046000C0C5C0C5403D49008D46704710B5044623
:10047000C046C0462046FFF766FE10BD00487047E4
:100480003401002001491820ABBEFEE7260002001F
:10049000704710B50146406A826B50231A420AD158
:1004A000816B01225202114381630168CA681205FF
:1004B000920F05D020E0006B026B0846904710BDFC
:1004C000827E002A18D10A68120715D58A68530758
:1004D0000122002B09DB4B680C24A3434B60816B8A
:1004E000130299431143816306E0816B2023194372
:1004F0008163C16B1143C16300F070F910BD10B589
:10050000406A816B402211438163C16B0422114315
:10051000C16300F072F910BD10B5406A00F06CF9CB
:1005200010BD0000F8B504460020009020688168E6
:100530008907890F012905D10168C90731D1C1682F
:1005400009042ED48168184A10261140012500297B
:100550001AD1816829438160154814490068FFF762
:10056000B6FE00E0401E00900028FBD100F01EFC0B
:10057000074611E000F01AFCC01B02280CD92068C5
:100580000068C043C00707D0A06B3043A063E06B96
:100590002843E0630120F8BD20680068C043C0071D
:1005A000E8D10020F8BD00001700008040420F0095
:1005B0000C00002010B5024800F072FA10BD0000D7
:1005C0006000002010B50446006805494018142159
:1005D000FFF77DFE800020640248E06310BD00004C
:1005E000F8FFFDBF0000024030B5056C0124AC40AF
:1005F000C56B6C60046863604368102B036803D0AC
:1006000099600068C26030BD9A600068C16030BD0A
:1006100072B6FEE7F8B5054604462035287D00266B
:10062000012808D001202875206881688907890F72
:10063000012908D101E00220F8BD0168C9073CD1B9
:10064000C168090439D4A16BFF220132914302220F
:100650001143A163C1688907890F0091C1688908A6
:100660008900C1602068816892071143816000F0B1
:100670009DFB074612E000F099FBC01B02280DD934
:1006800020688068002809DAA06B022188431021C5
:100690000843A063002028750120F8BD2068806809
:1006A0000028E8DB2068C168009A1143C160A06B94
:1006B00080088000401CA06304E0A06B2021084358
:1006C000A0630126002028753046F8BDF8B5002546
:1006D000044620340095227D012A39D0012222755A
:1006E00003689E68760767D4384F4E68BE424DD087
:1006F0009E6A0F78BA4016439E620123C26A1B07A6
:100700009A421FD0012A1DD0022A1BD0032A19D0D9
:10071000042A17D0052A15D0062A13D0072A11D08B
:1007200002688B6856697607760FB3420AD0536920
:10073000DB08DB005361006842690B7A5B075B0FE3
:100740001A4342610A68102A04D0112A02D038E004
:100750000220F8BD1E488368102A07D001229205A6
:10076000134383600868102803D02AE00122D205D1
:10077000F6E7194817490068FFF7A9FD0A21484321
:1007800000E0401E00900028FBD11AE0986A0E7825
:10079000B240904398620968102901D0112910D104
:1007A0000B488268102904D0012189058A438260A0
:1007B00007E00121C905F9E7816B2022114381631C
:1007C0000125002020752846F8BD0000011000001A
:1007D0000027014040420F000C000020006804493F
:1007E000884203D10348C168491CC16070470000BA
:1007F000002401401000002070477047F8B5002623
:100800000446002805D0A06B25462035002802D0DC
:1008100007E00120F8BD0020E0632875204600F0C5
:10082000A9F8A06B1022C006002870DB2068816840
:1008300049076CD4A16B1301994302231943A163A7
:1008400081688907890F012905D10168C9070FD17E
:10085000C16809040CD4C16818239943A3681943DB
:10086000C1602068016963688900890819430161D2
:100870002068C1683D4B1940C160207E617E8003C5
:10088000C9030843A17E4B031843A36A012B02D07E
:1008900001231B0300E000231843E3681843236986
:1008A000022B09D0002318432B79E57E5B00184307
:1008B0000123012D02D00AE00423F4E7002927D008
:1008C000A16B20252943A163E16B1943E163E16931
:1008D0000D46FF3DC23D02D0256A294308432168E9
:1008E000CD680543CD600125E16A2D07A94213D0EB
:1008F000012911D002290FD003290DD004290BD0D2
:10090000052909D0062907D0072905D010E028E0DD
:10091000012109040843DAE721684D69ED08ED007B
:100920004D6121684D69A78D7F077F0F3D434D6164
:100930002168C9680E4D2940814207D10020E0633B
:10094000A06B80088000401CA06308E0A06B02211F
:1009500088431043A063E06B1843E06301263046F0
:10096000F8BDA06B1043A063F8E700001902FEFF7A
:10097000E7FF3F8370B586B0054614216846FFF750
:10098000A4FC1B49286888422FD11A498A6940155E
:1009900002438A618A69024005924A690002024361
:1009A0004A614969002601400320009001900591A9
:1009B000092002966946C00600F020F90E480F4C47
:1009C00041C48020266060604000A0608000E0603C
:1009D0002020666120610948083C00F0AFF800283B
:1009E00001D0FFF715FE2C63656206B070BD0000F4
:1009F0000024014000100240080002406000002076
:100A0000F7B5044600680025806840073DD42646B7
:100A10002036307D01280AD001273775607E0128F5
:100A200007D02046FFF77EFD050002D02EE0022011
:100A3000FEBDA06B16490840FF2101310843A063A9
:100A40000020E0633075216B12488862216B1248E8
:100A5000C862216B1148086321681C200860206867
:100A600041681022114341602068C1683943C16068
:100A70002168206B4031029B019A00F089F82068C0
:100A8000816804221143816000E002252846FEBDF2
:100A9000FEF1FFFF9304000819050008FF04000899
:100AA000F0B4C16B0D6801680C680422066C134633
:100AB000B3402B420DD063070BD50B689B0602D4C5
:100AC0000B6893430B60016C8A40C16B4A60C16A3A
:100AD00019E00227B74002462F4001232032002FA1
:100AE00015D0A70713D50C68A40604D40C680A25F2
:100AF000AC430C605370036C02219940C36B596086
:100B000000211170816A002916D0F0BC084708271F
:100B1000B7402F4210D024070ED50C680E25AC43E9
:100B20000C60046C1946A140C46B61608363537010
:100B300000211170016BE6E7F0BC704770B504004E
:100B400021D00221204620300546417022681168DC
:100B50000E48A3680140606826691843E368334380
:100B6000184363691843A3691843E36918430843AA
:100B700010602046FFF726FD0021A1630120687068
:100B80002970084670BD012070BD00000FC0FFFF36
:100B9000F8B504468C46203001780025012909D09B
:100BA0000126067041780027012905D0077002252B
:100BB0002846F8BD0220F8BD02214170A7632068D5
:100BC000016849084900016061462046FFF70CFDB5
:100BD000E06A00282068016802D00E22114306E076
:100BE0000A221143016020680168042291430160D8
:100BF0002068016831430160DAE70000F8B500239E
:100C000003240125BAE02E469E40B44632407CD0F3
:100C10000E79B607B60F012E01D0022E17D18668C5
:100C20002746B6465E00B74000967646BE43B646B7
:100C3000CF68009EB7407646374387604668674670
:100C4000BE430F79FF06FF0F9F40374347600E7981
:100C5000F643B6070ED0C6682746B4465E00B646D1
:100C6000B7406646BE43B4468F687646B740664690
:100C70003743C7600E79B607B60F022E14D1DE08CF
:100C8000B60036180096366A5F07B446FE0E0F2788
:100C9000B646B7406646BE43B4460F697646B7408F
:100CA00066463743009E376206682746B4465E00B4
:100CB000B646B7406646BE430F79B446BF07BF0F7E
:100CC0007646B7406646374307604E68B603B60FB0
:100CD00053D02D4FBE692E43BE61BE699F08F607F3
:100CE000F60F2A4EBF00BE190096B6680F27B4460D
:100CF0009E07360FB646B7406646BE430927FF0635
:100D0000B446B84202D1002710E036E0204FB84286
:100D100001D101270AE01F4FB84201D1022705E0A7
:100D20001D4FB84201D1032700E005277646B740A2
:100D300066463743009EB760184EB6684F689643C4
:100D4000FF0200D51643154FBE60FE684F689643FC
:100D5000BF0200D51643114FFE607E684F68964370
:100D6000BF0300D516430D4F7E603E684F68964323
:100D7000FF0300D51643094A16605B1C0A68164635
:100D8000DE4000D03FE7F8BD001002400000014007
:100D90000004004800080048000C0048000401401E
:100DA000002A01D0816170478162704701488068E4
:100DB000704700000000002002488168027889180E
:100DC000816070470000002010B5064801681022BD
:100DD00011430160032000F007F800F027F800201D
:100DE00010BD00000020024070B504460D4D7D206E
:100DF0002978C000FFF76BFA01460B480068FFF73F
:100E000066FA00F0A9FA002809D1042C07D20022C2
:100E10002146401E00F02AF800206C6070BD0120C1
:100E200070BD0000000000200C00002008B508483C
:100E30008169012211438161816911400091C26978
:100E400001040A43C261C0690840009008BD000067
:100E500000100240002805DBC106C90E01208840B1
:100E6000014908607047000000E100E010B501F0A2
:100E700045F810BDF8B50F46060059D03A4D286820
:100E8000C007C00FB84209D2286840084000384364
:100E900028602868C007C00FB84249D13068334C79
:100EA00081070CD5400704D5606807210902084373
:100EB00060606068F0218843B16808436060307802
:100EC000C00726D0706801280ED0216802280ED0F5
:100ED000890700292CDA616889088900014361606B
:100EE000FFF764FF00900DE021688903F1E78901B5
:100EF000EFE7FFF75BFF0099411A1D48814201D9D6
:100F00000320F8BD60680C210840716889008842A0
:100F1000EFD12868C007C00FB8420BD92868400835
:100F20004000384328602868C007C00FB84201D08D
:100F30000120F8BD3078400706D560680721090216
:100F40008843F1680843606000F018F86168094A56
:100F50000906090F515CC840074908600320FFF7E4
:100F600043FF0020F8BD00000020024000100240B6
:100F700088130000DE1F00080C00002010B5104A86
:100F800051680C200B4603400E48042B17D0082B49
:100F900015D18B020C4C1B0FE45CD26A0A4B120772
:100FA000120F10339A5CC90305D500231946FFF7C9
:100FB000EDF8214601E02046044900F087FF10BD0E
:100FC0000010024000127A00BE1F000800093D0018
:100FD000FEB5040070D02078DC4DC0074AD06868A8
:100FE0000007800F012807D068680007800F0228DB
:100FF00009D16868C00306D5286880033AD56068BF
:101000000028E7D036E06168012914D0012080046F
:10101000002901D0052914D02A68012109048A4336
:101020002A602968814329606068002816D0FFF78C
:10103000BDFE06460EE02868012109040843286029
:10104000F2E7296801432960F5E7FFF7AFFE801B4F
:1010500064286ED828688003F7D50BE0FFF7A6FE5A
:10106000064604E0FFF7A2FE801B6428F1D828683A
:101070008003F7D420780126800700283CDA6868CE
:101080000007800F07D068680007800F022809D189
:101090006868C00306D42868800716D5E068012870
:1010A0000AD112E0E0680028286816D03043286092
:1010B000FFF77CFE074605E043E1FFF777FEC01B24
:1010C0000228C6D828688007F7D52868F821884301
:1010D0002169C900084328600EE0400840002860EC
:1010E000FFF764FE074604E0FFF760FEC01B02281E
:1010F000AFD828688007F7D42078000722D5E069A8
:101100000028686A0ED030436862FFF74FFE07463A
:1011100004E0FFF74BFEC01B02289AD8686A8007DC
:10112000F7D50FE0400840006862FFF73FFE074632
:1011300005E09DE0FFF73AFEC01B022889D8686AE7
:101140008007F7D4207804274007002860DA0020C1
:101150000190E869C00008D4E969B8060143E96173
:10116000E969014001200091019079480168C905B1
:1011700011D40168821511430160FFF717FE00903A
:1011800005E0FFF713FE0099401A642870D87048F4
:101190000068C005F5D5A06801280AD0002801D054
:1011A000052810D0286A400840002862286AB84301
:1011B00001E0286A30432862A068002812D0FFF7B7
:1011C000F5FD00900AE0286A38432862F1E7FFF74E
:1011D000EDFD0099411A5F48814249D8286A80078D
:1011E000F5D50DE0FFF7E2FD009006E0FFF7DEFD2C
:1011F0000099411A574881423AD8286A8007F5D4A5
:101200000198002804D0E969012000078143E961C1
:101210002078C00635D5606901280CD0401D686B68
:1012200023D038436863686B400840006863FFF769
:10123000BDFD064622E0686B38436863686B304347
:101240006863FFF7B3FD064604E0FFF7AFFD801BC0
:1012500002285BD8686B8007F7D5686BF821884354
:10126000A169C900084368630BE0B8436863F4E709
:101270004CE0FFF79BFD801B022847D8686B800776
:10128000F7D4206A00285ED069680907890F02290F
:1012900042D0012636060228286805D0B0432860CF
:1012A000FFF784FD044633E0B0432860FFF77EFD7E
:1012B000074604E0FFF77AFDC01B022826D82868FD
:1012C0008001F7D4E86AE16A000900010843E86296
:1012D000616AA06A084369683D2212049143084389
:1012E0006860286830432860FFF760FD044604E02A
:1012F000FFF75CFD001B022808D828688001F7D59D
:1013000021E0FFF753FD001B022801D90320FEBD99
:1013100028688001F5D416E00128F8D06868E96AE9
:1013200001221204636A02409A420AD10907E26A62
:10133000090F914205D10F2189040840A16A884212
:1013400001D00120FEBD0020FEBD000000100240C3
:101350000070004088130000094910B5401E884203
:1013600001D9012010BD074C60610321081F00F066
:10137000C5FD0020A06107202061002010BD0000F5
:10138000FFFFFF0000E000E070477047F0B5024645
:101390002032137F012B1BD00126167702235377AF
:1013A00005686B68AC687027BB430F681F436F60AC
:1013B0000068084B984202D0074B984204D1802322
:1013C00049689C4321438160567700201077F0BD27
:1013D0000220F0BD002C01400004004070B5040064
:1013E00005D025462035687F002802D006E0012080
:1013F00070BD00202877204600F014F8022068779E
:10140000211D206800F0F8FB01204034A071A8776E
:10141000E87720706070A070E0702071607168776C
:10142000002070BD08B5104A0168104891420FD1E4
:101430008269C1140A4382618069002208400090D9
:1014400011460D20FFF712FD0D20FFF703FD08BD2B
:10145000074A9142FBD1C26902210A43C261C069B5
:101460000840009008BD0000002C01400010024020
:1014700000040040014620314A7F012A01D00120AA
:10148000704702224A770268D36801210B43D36078
:101490000068084A904202D0074A904204D182680C
:1014A0005207520F062A02D002680A430260002047
:1014B00070470000002C014000040040F8B50546CC
:1014C00004462035287F0026012817D001202877E0
:1014D00002206877226890687727FF23B8431B02B1
:1014E000984390600868502838D00EDC20284FD0F0
:1014F00006DC00284CD010281ED149E00220F8BD9F
:10150000302845D0402817D13AE060282ED07028E6
:1015100019D001221203801A0FD090420CD1CB684F
:101520004A688968206800F0B8FB20688168012259
:1015300092031143816000E00126012068770020BA
:1015400028773046F8BDCB684A688968206800F083
:10155000A4FB2168886838438860EEE7CA68496858
:10156000206800F08FFC5021206806E0CA684968B6
:10157000206800F098FC6021206800F099FBDCE70F
:10158000CA684968206800F07DFC40212068F4E7C3
:10159000226801461046F0E77047F8B50446006837
:1015A000C66805690027A907002913DAB10711D514
:1015B000F91E01610120207720688069800720469C
:1015C00002D0FFF7E9FF04E000F0B6F8204600F093
:1015D00041F92777680716D5700714D504202168CC
:1015E000C043086102202077206880698005800F51
:1015F000204602D0FFF7D0FF04E000F09DF820461F
:1016000000F028F92777280715D5300713D50820CB
:101610002168C0430861042020772068C0698007E2
:10162000204602D0FFF7B8FF04E000F085F820461E
:1016300000F010F92777E80616D5F00614D510202B
:101640002168C0430861082020772068C0698005B0
:10165000800F204602D0FFF79FFF04E000F06CF8F7
:10166000204600F0F7F82777E80708D0F00706D003
:1016700001202168C0430861204600F03BF928069C
:1016800008D5300606D580202168C0430861204671
:10169000FFF77AFE680608D5700606D54020216857
:1016A000C0430861204600F03FF9A80608D5B006FF
:1016B00006D520202168C04308612046FFF765FE5B
:1016C000F8BD000070B586B0044614216846FEF7E8
:1016D000FCFD16492068884225D115484269491306
:1016E0000A43426142690A400592426949000A433D
:1016F00042614069002408400590C0200090022506
:101700000126092002946946049601950394C006B7
:10171000FFF774FA0095029469460648049601950D
:101720000394FFF76BFA06B070BD000000040040A0
:1017300000100240000400487047F8B50646044611
:101740002036307F00270D4601280ED0012030774B
:10175000002A0CD0042A1BD0082A2FD00C2A3ED0F5
:101760000127002030773846F8BD0220F8BD2068F8
:1017700000F0A6FA2068816908221143816120687F
:10178000826904218A438261206881692A6912E0A2
:10179000206800F0D1FA206882690121C9020A4359
:1017A00082612068816901229202914381612068EF
:1017B00081692A69120211438161D2E7206800F031
:1017C000F5FA2068C16908221143C1612068C26925
:1017D00004218A43C2612068C1692A6912E0206835
:1017E00000F020FB2068C1690122D2021143C161CF
:1017F0002068C269012189028A43C2612068C169E7
:101800002A6912021143C161ABE770B5040005D02B
:1018100025462035687F002802D006E0012070BDF3
:1018200000202877204600F014F802206877211D58
:10183000206800F0E1F901204034A071A877E87732
:1018400020706070A070E070207160716877002077
:1018500070BD70477047000010B50446022220306A
:1018600000290AD004290DD02046403008290ED086
:101870004378012B10D0012010BD837F012BFAD1BA
:1018800082770AE0C37F012BF5D1C27705E00378A8
:10189000012BF0D1027000E042700122206800F0BC
:1018A000EFF910492068884205D00F4A904202D0D3
:1018B0000E4A904204D1426C0123DB031A43426476
:1018C00020680122884202D00949884204D18168F7
:1018D0004907490F062902D0016811430160002021
:1018E00010BD0000002C01400044014000480140B0
:1018F0000004004010B50068094988420CD1094C29
:1019000009202178C006002907D001220421FFF711
:1019100047FAA068401CA06010BD0022F6E7000056
:10192000002C0140100000207047FEE73EB5002467
:101930001C48009401941A490294016084600125B6
:1019400005614905C4604160042141610476447623
:101950008576C476FF21C2310462C161014620311F
:101960000D718562FEF74AFF002801D0FEF750FE98
:101970000120000301900720029000946946094865
:10198000FEF7A4FE002801D0FEF742FE6946054896
:101990000095FEF79BFE002801D0FEF739FE3EBD04
:1019A000002401402000002008B5084841690122B8
:1019B0001143416140690321104000900022092039
:1019C000FFF754FA0920FFF745FA08BD001002405E
:1019D00030B587B014216846FEF777FC1948426994
:1019E000012189050A43426142690A400592426920
:1019F00049110A43426142690A400592426949001D
:101A00000A434261406909250840ED06059000221D
:101A100004212846FFF7C4F9042000900120002487
:101A200001900294694603942846FFF7E7F83820AE
:101A300000900194694602942846FFF7DFF807B04A
:101A400030BD00000010024010B586B000240094A4
:101A50001748019402940394049414490594016076
:101A60002F21846041600461C7214461C1608021ED
:101A70008161FFF7B3FC002801D0FEF7C9FD01200A
:101A80000003009069460A48FFF718FD002801D0BE
:101A9000FEF7BEFD049404A905480594FFF776FC03
:101AA000002801D0FEF7B4FD06B010BD002C0140A7
:101AB000A400002010B58EB0002407940894099467
:101AC0000A940B941C2168460C94FEF7FEFB2949EE
:101AD000294812C004602949846041608021016165
:101AE0000838FFF77BFC002801D0FEF791FD0120AC
:101AF0000003079007A92048FFF7E0FC002801D069
:101B0000FEF786FD1C48FFF780FE002801D0FEF797
:101B10007FFD0B940BA918480C94FFF737FC0028A5
:101B200001D0FEF775FD6020009001200190029425
:101B30000022694604941048FFF7FFFD002801D0F9
:101B4000FEF766FD042269460B48FFF7F6FD002804
:101B500001D0FEF75DFD0C22694607480194FFF7AE
:101B6000ECFD002801D0FEF753FD0348FFF7AAFD66
:101B70000EB010BD00040040EC000020E7030000A0
:101B8000FEE77047704710B5FFF716F910BD30B586
:101B900091B030216846FEF798FB002401200090A8
:101BA00001900E94000409900F9400010D940225F9
:101BB0000A900C9408950B946846FFF709FA0028E0
:101BC00001D072B6FEE707200C900E9401210D950E
:101BD0000F940CA8FFF74EF9002801D072B6FEE76B
:101BE00011B030BD7047000010B50248FFF7D5FCBA
:101BF00010BD0000A400002070B502681B4B1C4EF5
:101C0000984201D0B04203D17024A2434C682243D1
:101C1000184C194D984208D0B04206D0174EB04229
:101C200003D0A04201D0A84204D103263602B24319
:101C3000CE6832438026B2434E69324302608A68DE
:101C4000C2620A688262984203D0A04201D0A842D0
:101C500001D109690163012141610169C90703D00B
:101C6000016949084900016170BD0000002C014074
:101C700000040040004401400048014000200040B2
:101C800010B5CB06DB0E0121046A99408C43046237
:101C9000016A9A401143016210BD30B58468FF2586
:101CA0002D021B021343AC430B432343836030BD1F
:101CB000826870239A430A4307210A43826070476F
:101CC000F0B5056A026A52085200026243688269EE
:101CD0007024A24392080C68920014430222954398
:101CE0008A68134E2A43114DA84204D0B04202D054
:101CF000104FB84206D10827BA43CF6817430422D1
:101D000097433A46A84204D0B04202D0094DA842B7
:101D100006D103252D02AB434D691D438B692B432F
:101D200043608461496841630262F0BD002C014058
:101D3000004401400048014070B5046A026A102363
:101D40009A4302624368826973252D02AA430D6893
:101D50002D021543202294438A6812012243104C1D
:101D6000A04208D11446CA688026B4431201224317
:101D70004024A24305E00B4CA04202D00A4CA042F2
:101D800008D10324A402A3434C69A4001C438B691B
:101D90009B0023434360856149688163026270BD93
:101DA000002C0140004401400048014070B5056A24
:101DB000026AFF2301339A4302624268C3697024B6
:101DC000A3439B080C689B001C4301235B029D43BB
:101DD0008B681B022B43104DA84208D11D46CB68CF
:101DE000C614B5431B022B430515AB4305E00B4D51
:101DF000A84202D00A4DA84208D103252D03AA43C8
:101E00004D692D0115438A6912012A434260C4615C
:101E10004968C163036270BD002C01400044014069
:101E20000048014030B5046A026A01231B039A434B
:101E300002624368C26973252D02AA430D682D0210
:101E400015430122520394438A68120322430A4C29
:101E5000A04205D0094CA04202D0094CA04205D1B5
:101E60000124A403A3434C69A40123434360C56137
:101E700049680164026230BD002C01400044014009
:101E80000048014030B5036A046A640864000462D3
:101E90008469F025AC43120122430A24A3430B4377
:101EA0008261036230BD30B5046A036A1025AB431A
:101EB000036283690F252D031203AB431A43A0234A
:101EC0009C43090121438261016230BDF8B5040CD5
:101ED0008BB2264682B25E430D0C1046370C584337
:101EE000360480190021794116466E43370C3604BA
:101EF0008019794126466E438919F8BD8307FF2270
:101F0000DB0E9A408907090E9940002808DB8308F8
:101F100009489B001B1818689043084318607047D5
:101F20000007000F0838830804489B001B18D86975
:101F300090430843D861704700E400E000ED00E002
:101F400010B51148FEF766FB022210490E48FEF755
:101F500057FD0F48FF210268F53151630268FA21ED
:101F6000916300680B49016400210948FFF774FC84
:101F700004210748FFF770FC0C210548FFF76CFCB3
:101F80000548FFF777FA10BD20000020120000205E
:101F9000EC000020EE020000A4000020FEF714FF79
:101FA000FFF7F5FDFFF714FDFFF7FEFCFFF7BEFCA2
:101FB000FFF74AFDFFF77EFDFFF7C2FFFEE70203D2
:101FC0000405060708090A0B0C0D0E0F101001027C
:101FD000030405060708090A0B0C0D0E0F1000007C
:101FE00000000000000001020304060708090000C9
:101FF000102000080000002020000000F40000086D
:1020000030200008200000207807000010010008A0
:1020100001000000040000000000000000127A002F
:1020200000000000000000000000000000000000B0
:04000005080000B13E
:00000001FF
